:020000020000FC
:040000000C945D08F7
:02003C0033C5CA
:100060000091910000700093910008952093A000EA
:100070003093A10008952091A0003091A10000E0EC
:1000800022FD02C020FB03C0689420FDE89400F923
:1000900023FD02C000FB03C0689400FDE89400F952
:1000A00025FD02C000FB03C0689400FDE89400F940
:1000B00000FB88940EF40894379527952093A000B0
:1000C0003093A100089560E0D6DF0EF46160D3DFC5
:1000D0000EF46260D0DF0EF4646008952F93F3DFB6
:1000E0002F9126170CF4FACF0895A4E9B0E037E079
:1000F0003D933D93A6E9B0E03D933D93A8E9B0E080
:1001000037E03D933D9334D033D032D031D0A2E9A3
:10011000B0E02D933D9308950D91005109930D91F9
:10012000099308950D91005F09930D910993089526
:100130000D9109930D910054099308950D91099320
:100140000D91005C099308950D9109930D910F5F36
:100150000F7D099308950D9109930D910150099315
:1001600008950D91009392000D91009393000895CE
:10017000CAE9D0E009810F9308810F930A810883AF
:100180000B8109830C810A830D810B8305D02C839D
:100190003D832F913F91089526E0A0DF20E7262B95
:1001A00031E008950091910005FB0EF4089500914F
:1001B000910000620093910087D40091910001604A
:1001C00000939100009198000F70073091F02091FA
:1001D00092002F70409198004F7030E4406751E0DA
:1001E000209398003093990040939200509393008D
:1001F000089520919200277030E420939800309366
:100200009900B6DF20939200309393000895422F17
:10021000207F22954770532F507C529556955695C6
:100220003F71F1E0E4E2042F002319F034960A95BF
:10023000FBCF00E0E50FF01FEE0FFF1FC895502D1C
:100240003196C895402D0895000F2222F0004444B5
:10025000008E4064200EC044002E6044800E40C4D6
:100260000066006600660066006C2046C006408C92
:10027000004E4046400E404C00C64026600C804C6C
:1002800000000000000000000FEF00BBD0E0C0E65F
:100290000027009510E10993C030D107E1F7000075
:1002A000019109932A9509F0FBCF089520E3F0E02E
:1002B000E2EAD0E0C2EDF4DFE2E9F0E02191319131
:1002C000A6DFD0E0C2EDC30F08F4DF5FC30F08F470
:1002D000DF5F642F607F0CD0642F6295607F08D051
:1002E000652F607F05D0652F6295607F01D00895EE
:1002F0007727022F002321F00A9566957795FACF8C
:100300000881062B09930881072B099308952191F1
:1003100031917DDFD0E0C2EAC30F08F4DF5FC30F85
:1003200008F4DF5F642F607F0CD0642F6295607FDC
:1003300008D0652F607F05D0652F6295607F01D062
:1003400008957727022F002321F00A956695779567
:10035000FACF0991062321F40991072309F408959E
:1003600000919100026000939100089520E3F0E075
:10037000E2EDD0E0C2EA94DF0895E894A2EAB0E0AA
:100380005696569606E1002309F408950A953E9084
:10039000309409F0F8CF3E903094A9F7689408950E
:1003A00006E1332430EE47E0C2EAD0E0002309F44E
:1003B00012C00A952881209519F42981209539F0D9
:1003C00028812F93399328812F934993EFCF33942A
:1003D00039934993EBCF06E10319002309F406C0D2
:1003E0000A952F912A932F912A93F7CF032D00235B
:1003F00009F40895043014F0EBD20895033014F09A
:10040000EED20895023014F0F1D20895013014F0C4
:10041000F4D2089500E001BB00B30093020100E0B4
:100420000093030100930401A5E0B1E004E2302E43
:100430000FEF332019F03A940D93FBCF08952091DC
:10044000040130E0A5E0B1E0B30FA21F00B30C93AC
:1004500000910401033220F4003010F0039501C034
:1004600000E0009304012FEFA5E0B1E000E00432CA
:1004700024F403953D912323FACF309102013227D2
:10048000309303012093020108950FEF07BBC09A38
:1004900020E01BD02CE219D024E117D021E015D0A8
:1004A00023E013D02FEA11D00895662369F0062FB8
:1004B000022329F0C298C49AC29A6695F6CFC298D0
:1004C000C498C29A6695F1CF08950F936F93C09820
:1004D0002F9324E064E0E9DF2F9160E8E6DFC29823
:1004E000C498C29AC09A6F910F910895C09825E060
:1004F00064E0DBDF20E060E4D8DF0895C09A08956F
:100500002FEF2F93C09825E064E0CFDF2F912A953D
:100510002F9360E4CADF20EF60E8C7DFC09AF2CF14
:100520002F910895B2DF0895E1DFA1E6B0E008E180
:100530000F930F910023A9F00A950F933D9108E0C6
:100540003795221F0A95E1F72F933D9108E03795E3
:10055000221F0A95E1F760E8A8DF2F9160E8A5DF88
:10056000E8CFCCDF08952DEAB0DF6ED02CEAADDF06
:100570006BD02BEAAADF68D02CEAA7DF65D02DEA82
:10058000A4DF62D02EEAA1DF5FD02DEA9EDF5CD02F
:100590002CEA9BDF59D02BEA98DF56D02CEA95DF66
:1005A00053D02DEA92DF50D02EEA8FDF08952DEA46
:1005B0008CDF45D02AEA89DF42D027EA86DF3FD0A8
:1005C0002AEA83DF3CD02DEA80DF39D02AEA7DDFBA
:1005D00036D027EA7ADF33D02AEA77DF30D02DEA27
:1005E00074DF2DD02AEA71DF2AD027EA6EDF27D008
:1005F0002AEA6BDF24D02DEA68DF08952EEA65DF52
:100600000EE0002329F00A952A9523D05EDFF9CF6A
:10061000089520EA5ADF0EE0002329F00A95239579
:1006200018D053DFF9CF089520EA4FDF0EE0002302
:1006300029F00A95239503D048DFF9CF08950F9349
:100640000FEF0CD00F9108950F9308E607D00F918C
:1006500008950F9304E302D00F9108950F930FEFC5
:10066000302E0F913A94F1F73A940A95D9F70895FC
:100670003090008037FCFCCF03D0009300800895B9
:1006800000D0000008952D3069F12A30A9F10091C1
:10069000008007FDFCCFF4DF209300C0089501E047
:1006A000E7CF02E0E5CF00E1E3CF04E1E1CF08E1ED
:1006B000DFCF0CE1DDCF0DE0DBCF0CE0D9CF0EE0DA
:1006C000D7CF0CE0D5CF05B7006C05BF01E0D0DF78
:1006D00006E0CEDF0CE0CCDF08E3CADF0895022F8E
:1006E0000068C6CF0091008007FDFCCF0074006851
:1006F000C7DF0093008008952F9320E4F0DF2F914F
:100700000895FF91EF91EE0FFF1FAF93BF93C89530
:100710003196002021F04AF0002D13D0F8CF319609
:10072000F695E795BF91AF91099400FA002DC89511
:10073000A02DBB273196043879F0053881F015C01B
:10074000E6CF2F93FF93EF93E42DF52D202F0995FE
:10075000EF91FF912F9108950C91F3DFD8CF0D9178
:10076000002309F4D4CFEDDFFACF5F934F933F938B
:100770002F939F938F937F936F932D913D914D91E5
:100780005D9106FD06C005FD0FC004FD10C003FD10
:1007900019C06AE0702F76957770729580E0902F7F
:1007A0009295937093951AC062E094E003C060E163
:1007B00094E000C0702F7695777009F478E0729518
:1007C00080E00CC06AE0C895802D3196C895702DE8
:1007D0003196902F95959370939500C0943081F049
:1007E000933051F0923021F0332716F427FD3FEF7C
:1007F000442716F437FD4FEF552716F447FD5FEFFA
:1008000009D06F917F918F919F912F913F914F913F
:100810005F917DCFCF92BF92AF929F928F92BB1884
:10082000AA249924882486F4E89455236AF46894C9
:10083000772309F0705150954095309520950FEF32
:10084000201B300B400B500B882351F055954795DA
:1008500037952795B794A794979487948A95B1F77D
:100860007F9372957F700EE20F9345D00C2D30D0A0
:100870000F930027201730074007500729F07723F0
:10088000A1F37A9591F707C0772329F07A9519F0AB
:1008900000E257DFF9CF16F40DE253DF0F910E326D
:1008A00011F04FDFFBCF7F917F70772359F049DF45
:1008B000282D392D4A2D5B2D11D00C2D09D041DF6B
:1008C0007A95D1F78F909F90AF90BF90CF90089579
:1008D0000A3010F4005D0895095A0895CC2400E20E
:1008E000889420FDC60EC794579547953795279550
:1008F0000A95B1F70895CC2400E2221F331F441F4C
:10090000551FCC1CC61A08F4C60E0A95B1F7221F53
:10091000331F441F551F50954095309520950895DD
:1009200001E00093290100E000932A0100932B01CC
:1009300000932C0100932D0100932E010895209126
:100940002A0130912B0140912C0150912D01260F4D
:10095000371F18F4439509F4539520932A013093D7
:100960002B0140932C0150932D01622F732F842F64
:10097000952F7ED0261737074807590754F4262F9E
:10098000372F482F592F81D020912901A4E0B0E0C2
:100990007FD3089530912E01320F30932E010091B4
:1009A0002901002319F00A953550FBCF33230AF4AF
:1009B000089530932E0101D00895009129010395E7
:1009C0000093290121B730E1301B231B21BF08957B
:1009D00062E370E0B4DF28E0DDDF20D008956EE14F
:1009E00070E0ADDF25E0D6DF19D0089564E170E056
:1009F000A6DF23E0CFDF12D008956AE070E09FDF2A
:100A000021E0C8DF0BD0089561E070E098DF06D0E8
:100A1000089562E070E093DF01D00895AAE2B1E0AA
:100A20002D913D914D915D913CDE03E4402E03E01C
:100A3000502E67DE0DF012207074732020202020CD
:100A40002020202020200A002091290160912E01E1
:100A500003E4402E03E0502E54DE4CC0122028C088
:100A600016206C696E6573292020202000000895EF
:100A7000A3E0B0E01BD3AA95522F18D3AA95422F1A
:100A800015D3AA95322F12D30895A0E0B0E000D379
:100A9000A395232FFDD2A395242FFAD2A395252F1A
:100AA000F7D208950F931FB6009191000460009350
:100AB00091001FBE0F91189501B722B7021B00517C
:100AC00012F4205122BF089500E002BF0895EEEE17
:100AD000FFE007D0E2E0F0E104D0E6E1F0E101D090
:100AE0002CC016D096DD06E7302E03E00F933F9220
:100AF00000E3302E06E03A94F1F73A940A95D9F7DC
:100B00003F900F913A9491F70A9581F777DD089518
:100B1000A1E6B0E000E320E0002319F00A952D9350
:100B2000FBCFAFE6B0E004E1002329F00A95C895B9
:100B30000D923196F9CF59D208950EE003BF02E02D
:100B400007BF00E701BFD1DA65DCEADEB0E0A2EA68
:100B500026E130EE47E03D934D932A9509F0FBCF17
:100B60003FEF3D933D933D933D9360916000613035
:100B700019F06A9522DFFBCF51DF98DB68D149DDA0
:100B800000C00091910005720093910058DC3090F4
:100B90000201309400910301302232FA0EF45CD04D
:100BA00030900201309400910301302231FA0EF4AA
:100BB0005FD030900201309400910301302233FA6B
:100BC0000EF462D030900201309400910301302283
:100BD00030FA0EF46AD03090020130940091030193
:100BE000302234FA0EF472D0309002013094009129
:100BF0000301302235FA0EF475D0309002013094A2
:100C000000910301302236FA0EF484D030900201B4
:100C1000309400910301302237FA0EF47DD0009118
:100C2000910002FB0EF481D00091910004FB0EF4C0
:100C300070C10091910000FB3EF4009191000E7F85
:100C40000093910033DB03D19CCF0EE003BFE6DEBF
:100C5000D5DCFDD0DEDC95CFA2E9B0E0C4E9D0E080
:100C60005BDAA0D00091910001FB0EF025DF089522
:100C7000A2E9B0E0C4E9D0E055DA94D00091910047
:100C800001FB0EF019DF08950091910008600093B8
:100C90009100A2E9B0E0C4E9D0E04ADA83D0009143
:100CA000910001FB0EF008DF0895009191000860AB
:100CB00000939100A2E9B0E0C4E9D0E03FDA72D03D
:100CC0000091910001FB0EF0F7DE0895A2E9B0E07B
:100CD000C4E9D0E039DA66D00091910001FB0EF052
:100CE00093DE0895009191000D7F00939100A2E999
:100CF000B0E0C4E9D0E028DA55D00091910001FBC2
:100D000016F087DEEFCFE0DE0091910004600093E3
:100D10009100089547DA089500E003BF6FDCEAE22E
:100D2000F0E1F6DE76DCA1C20895009191000B7F20
:100D300000939100009191000D7F00939100A2E932
:100D4000B0E0C4E9D0E000DA2DD00091910001FBC1
:100D50000EF00895009191000F7D00939100A6DAA6
:100D600005DB0BDB1EF473D01BDBFDDB01DA20930C
:100D7000920030939300009191000D7F00939100B9
:100D8000E2E9F0E0C4DA0091910001FB2EF4009159
:100D90009100006100939100009191000160009327
:100DA00091000895E4E9F0E0B2DA0091910001FBCE
:100DB0002EF40091910003FB56F048C0A4E9B0E086
:100DC000D0D9009191000160009391000895A4E9A9
:100DD000B0E0C6E9D0E0A0D9009191000D7F00936A
:100DE0009100E6E9F0E093DA0091910001FB0EF04A
:100DF00024C0A4E9B0E0C6E9D0E094D90091910004
:100E00000D7F00939100E6E9F0E081DA0091910016
:100E100001FB0EF012C0A4E9B0E0C6E9D0E09BD916
:100E2000009191000D7F00939100E6E9F0E06FDA08
:100E30000091910001FB56F000C0A6E9B0E091D905
:100E40000091910001600093910008950895A1E63A
:100E5000B0E000E00D930D930091290120E030E017
:100E6000002329F00A95089427953795F9CF2D93FB
:100E70003D930D930D930FEF0D9300EF0D93C6ED82
:100E8000D0E004E1002359F00A9529913991330FFC
:100E9000221F330F221F307F2D933D93F3CFA6E8FF
:100EA000B0E00C910F600C9320919A0030E4AFD920
:100EB000C8E6D0E017D020919C0030E4A8D9C2E762
:100EC000D0E010D020919E0030E4A1D9CCE7D0E052
:100ED00009D02091980030E49AD9CAE8D0E002D035
:100EE00084D00895242F207F22953881322B388397
:100EF000242F2F703A81322B3A83252F207F229581
:100F00003C81322B3C83252F2F703E81322B3E8338
:100F1000089500E007BF4BDBA2EDB0E0149600EEB1
:100F20000D9307E00D9304EE0D9307E00D9304EE8F
:100F30000D9307E00D9304EE0D9307E00D9304EE7F
:100F40000D9307E00D9307EE0D9307EC0D9300EE64
:100F50000D9307E00D9303EE0D9307EC0D9304EE54
:100F60000D9307E20D9304EE0D9307E20D9304EE4B
:100F70000D9307E20D9304EE0D9307E20D9303EE3C
:100F80000D9307EC0D9300EE0D9307E00D9304EE27
:100F90000D9307E00D9304EE0D9307E00D9304EE1F
:100FA0000D9307E00D9304EE0D9307E00D9307EE0C
:100FB0000D9307EC0D9300EE0D9307E00D9347DFC3
:100FC00000EC302E03E10F933F9200E3302E06E059
:100FD0003A94F1F73A940A95D9F73F900F913A94E1
:100FE00091F70A9581F70ADBA1C09EDA089503C044
:100FF00004200020002000C0002000200020042049
:1010000003C003C004200020002000400080010035
:101010000200040007E00080038000800080008060
:10102000008000800080008003E00E700E700E7063
:101030000E700E700E700E700E700E700E703FFE01
:101040002002200220023E3E022002200220022036
:1010500003E0762F66273327222371F0022F12D068
:1010600000000A95E1F71A9B02C01A9801C01A9A6B
:10107000621B730B98F7089521E004D0621B730B79
:10108000E0F7089500C000C000D000D0000008952F
:10109000E199FECFAEBBBFBB2DBB1FF0E29AE19A38
:1010A0000895F894E29AE19A78940895E199FECF30
:1010B000AEBBBFBBE09A2DB308950FEF0DBF0FE09D
:1010C0000EBF0FEF07BB00E001BB0FEF02B9FBDA69
:1010D000E6DAE7DA27DA9ED908E000BF7894000064
:1010E00000C0EEE3F0E114DD9FDADBDA03E4402E2A
:1010F00003E0502E06DB0D20202057656C636F6DDA
:101100006520746F2020200A202020202054657440
:1011100072697320202020200000E4E7F3E110D062
:1011200001E000936000F9D05BD016C0EEE3F0E17F
:10113000EFDC7ADA01E000936000EFD051D00CC010
:1011400000B3869B0895C8953196002009F4089550
:10115000202D6EE17EDFF4CF72D90E943B003090EB
:101160000201309400910301302231FA0EF453C091
:1011700030900201309400910301302234FA0EF4D1
:1011800016D030900201309400910301302235FADC
:101190000EF419D0309002013094009103013022F6
:1011A00037FA16F42BDA93CCB8D01AD0D5CF2091D9
:1011B00060002F3020F4213010F0239501C021E091
:1011C00020936000089520916000213029F020F0E4
:1011D0002A952F3008F401C02FE020936000089575
:1011E000209160005EDA03E4402E03E0502E89DA9D
:1011F0000D53746172742020202020202020202094
:101200003E0A4C6576656C20C012202020202020EC
:1012100020202000089513D93090020130940091CD
:101220000301302232FA0EF497CFA4E0B0E03EDFA3
:10123000622F1EDC36DA03E4402E03E0502E61DA22
:101240000D3C204869676873636F72652020202019
:10125000200AF01220284CC016292020202020200F
:1012600020202020000059D0D6CFE9D830900201AC
:10127000309400910301302237FA0EF4E6CC30901E
:101280000201309400910301302231FA0EF419C0AA
:1012900008DA03E4402E03E0502E33DA0D436F6E7C
:1012A00074696E7565202020202020203E0A2020B1
:1012B000202020202020202020202020202000006E
:1012C000D4CFBDD830900201309400910301302278
:1012D00037FA0EF441CF30900201309400910301AF
:1012E000302232FA0EF4C1CFDCD903E4402E03E001
:1012F000502E07DA0D3C20517569742020202020E3
:1013000020202020200A20202020202020202020F3
:101310002020202020200000D4CFEEE3F0E1F8DBF5
:1013200000916000221B3327002329F00A950894BE
:1013300027953795F9CFE4E6F3E1A1E7B0E008E0BF
:10134000002371F00A95C895022231963C9003283B
:101350000D92C895032231963C9003280D92F0CF50
:1013600044DE08953FFE3FFE3FFE3FFE03E003E004
:1013700003E003E026262626333330302A2A262AA5
:101380003030333339393939393930302626262649
:101390002A2A303033334C4C333330302A2A2A2A2D
:1013A0002626262630303030393939393939333329
:1013B00033333030302A2A2A2A2A24241C1C1C1CAD
:1013C00020202424262626262626303026262626B9
:1013D0002A2A303033333333333330302A2A2A2A1F
:1013E00026262626303030303939393939393939DD
:0613F00039393939000013
:00000001FF
